:100F72004572726F720048756D203D2025642E25E2
:100F8200640054656D203D2025642E2564004300D5
:100F9200256420202000003200330014003C001E93
:100EC800C2A1D2A27F017E00120EE9C2A20F120EA9
:100ED800E9E9C454F0FFE590540F4FF590D2A27F92
:010EE8000108
:100EE900E4FDFCC3ED9FEC9E5015E4FBFA0BBB003F
:0F0EF900010AEB64704A70F50DBD00010C80E436
:010F080022C6
:10101F00A907E954F0FFE590540F4FF590C2A012C5
:09102F000EC8C2A27F05020EE901
:10103800A907E954F0FFE590540F4FF590D2A0129C
:091048000EC8C2A27F05020EE9E8
:060F42008B478A48894933
:100F4800E4F54AF54BAB47AA48A949854B82854A3F
:100F580083120E0EFFFD3395E04D600D121038051B
:090F68004BE54B70E0054A80DC0A
:010F7100225D
:100F09008F428D438B448A458946EF3395E04F7074
:100F190008E543540F44808013AF42EF3395E0FE58
:100F2900EF64014E700AE543540F44C0FF12101FCD
:090F3900AB44AA45A946020F428F
:100FA2007F147E00120EE97F0212101F7F2812109A
:100FB2001F7F0C12101F7F0612101F7F0112101FBD
:0C0FC2007F037E00120EE97F8002101FEA
:10105100758901758CB8758A0CD28C308DFDC28C66
:03106100C28D221B
:10106400758901758CFF758AF1D28C308DFDC28C27
:03107400C28D2208
:08108D00C2A3121051D2A322EC
:0A10830020A3FD30A3FD20A3FD22F1
:100FCE00E4FFFEFDFC30A3FD121064EF25E0FFEE02
:100FDE0033FE30A306EF4401FF800020A3FD0DBDBC
:090FEE0000010CED64084C70DCFC
:010FF70022D7
:100B5C0078367C007D007BFF7A0F79987E007F0AC7
:100B6C00120DE8120FA212108D121083120FCE8EDE
:100B7C00108F11120FCE8E0C8F0D120FCE8E0E8F7A
:100B8C000F120FCE8E0A8F0B120FCE8E088F09E527
:100B9C0011250DFFE510350CFEE50F2FFFE50E3E80
:100BAC00FEE50B2FFFE50A3EFEEF65097003EE65CF
:100BBC0008600C7BFF7A0F7972E4FDFF020C5F7505
:100BCC0045FF75460F754778851048851149850C8A
:100BDC004A850D4B7B007A00792212085C7B007AE7
:100BEC00007922E4FDFF120F097545FF75460F755C
:100BFC004784850E48850F49850A4A850B4B7B0037
:100C0C007A00792212085C7B007A007922E4FD7F5D
:100C1C0001120F097FDF1210387BFF7A0F799012C7
:100C2C000F427E007F147D007B007A007922120E29
:100C3C003B7545FF75460F754792850848850949F0
:100C4C007B007A00792212085C7B007A0079227D85
:100C5C000D7F01120F09D3E50F9414E50E648094F7
:100C6C00805014C3E50F940FE50E64809480400708
:100C7C00E4F540F5418079D3E50F9416E50E6480D8
:100C8C0094805015C3E50F9415E50E648094804054
:100C9C00087540007541018057D3E50F9418E50E97
:100CAC00648094805015C3E50F9417E50E6480940E
:100CBC008040087540007541028035D3E50F941AC9
:100CCC00E50E648094805015C3E50F9419E50E640D
:100CDC0080948040087540007541038013D3E50F64
:100CEC00941AE50E64809480401875400075410498
:100CFC00E54125E02436F808E6F5807F647E001295
:0C0D0C000EE97F647E00120EE9020B72FB
:0300000002107774
:0C107700787FE4F6D8FD758155020B5C13
:100D1800E709F608DFFA8046E709F208DFFA803EBD
:100D280088828C83E709F0A3DFFA8032E309F608AA
:100D3800DFFA8078E309F208DFFA807088828C8312
:100D4800E309F0A3DFFA806489828A83E0A3F608C6
:100D5800DFFA805889828A83E0A3F208DFFA804CA0
:100D680080D280FA80C680D4806980F28033801077
:100D780080A680EA809A80A880DA80E280CA8033E0
:100D880089828A83ECFAE493A3C8C582C8CCC58358
:100D9800CCF0A3C8C582C8CCC583CCDFE9DEE78028
:100DA8000D89828A83E493A3F608DFF9ECFAA9F0A7
:100DB800EDFB2289828A83ECFAE0A3C8C582C8CCFD
:100DC800C583CCF0A3C8C582C8CCC583CCDFEADE16
:100DD800E880DB89828A83E493A3F208DFF980CC78
:100DE80088F0EF60010E4E60C388F0ED2402B40471
:100DF8000050B9F582EB2402B4040050AF23234518
:060E08008223900D6873C7
:100E0E00BB010CE58229F582E5833AF583E0225099
:100E1E0006E92582F8E622BBFE06E92582F8E222E3
:0D0E2E00E58229F582E5833AF583E49322FD
:10080000E5512445F8E60551227842300702784543
:10081000E475F001120E92020E672000EB7F2ED2DB
:10082000008018EF540F2490D43440D4FF30040BD0
:10083000EF24BFB41A0050032461FFE55260021593
:10084000520555E5557002055430070D7842E475A0
:10085000F001120E92EF020E80020FF87403D2071D
:100860008003E4C207F5518B428A438944E4F55280
:10087000F554F555E55260077F2012083B80F57569
:1008800053FFC201C200C202C203C205C206C208AF
:10089000120809FF700D3007057F0012084CAF5594
:1008A000AE5422B4255FC2D5C204120809FF24D079
:1008B000B40A00501A75F00A785230D50508B6FF10
:1008C0000106C6A426F620D5047002D20380D924DE
:1008D000CFB41A00EF5004C2E5D204020A4CD20190
:1008E00080C6D20080C0D20280BCD2D580BAD205E8
:1008F00080B47F2012083B2002077401B5520040EB
:10090000F1120800FF12083B020874D208D20680D8
:1009100095120800FB120800FA120800F94A4B7001
:1009200006791D7A0B7BFF20022EE552602A7E009D
:100930008E82758300120E0E60060EEE655370F007
:10094000C2D5EBC0E0EAC0E0E9C0E0EE120A93D005
:10095000E0F9D0E0FAD0E0FB120E67FF60AAEBC02E
:10096000E0EAC0E0E9C0E012083BD0E02401F9D0A1
:10097000E03400FAD0E0FBE5530460DCD553D980C5
:10098000877BFF7A0A798FD202809C791080027966
:1009900008C206C2088008D2D5790A8004790AC242
:1009A000D5E553047002F553E4FAFDFEFF1208008A
:1009B000FC7B08200113120800FD7B1030000A1296
:1009C0000800FE120800FF7B20EC3382D592D55040
:1009D00013C3E43000069FFFE49EFEE42001039D64
:1009E000FDE49CFCE4CBF8C201EC700CCFCECDCC86
:1009F000E824F8F870F38017C3EF33FFEE33FEED11
:100A000033FDEC33FCEB33FB994002FB0FD8E9EBF1
:100A1000300105F8D0E0C448B201C0E00AEC4D4E08
:100A20004F78207B0070C2EAB5530040BCC0E01292
:100A30000A95D0F0D0E0200104C4C0E0C4B201C0E7
:100A4000F0120824D0F0D5F0EB020874120EA209BF
:100A50001153098B5808E24C08DE42098F4F099761
:0F0A60004409974908F743099D550981460981C3
:100A6F00450981470B3D5008E62D08EA2E090D2B4D
:100A7F0008EE23090B200B262A08A64800000905BB
:100A8F003F3F3F00790AA2D5200314300509B91062
:100A9F00020404B9080104A2D52006025001042063
:100AAF0002689202B552005034C0E07F2030031923
:100ABF007F30A20272067205500F120AECC202C2F8
:100ACF0006C205C2087F30800F300503E9C0E0126F
:100ADF00083B300503D0E0F9D0E0B552CC30051714
:100AEF007F30B9100C12083B7F583004077F788095
:100AFF0003B9080312083B3002057F2D02083B7F24
:100B0F00202008F87F2B2006F322920280CF286E38
:100B1F00756C6C2900D2011208003001F8C20178FF
:100B2F005230D50108F60208A62D50434958120835
:100B3F00002403B405004001E4900B389312082CF5
:0D0B4F00743A12082CD20375520402098B6F
:100E3B00EF4E6012EF60010EEDBB010B89828A83CE
:100E4B00F0A3DFFCDEFA2289F05007F709DFFCA9DB
:0C0E5B00F022BBFEFCF309DFFCA9F02232
:100E6700BB010689828A83E0225002E722BBFE0289
:090E7700E32289828A83E49322BC
:100E8000BB010689828A83F0225002F722BBFE0151
:020E9000F3224B
:100E9200FAE6FB0808E6F925F0F618E6CA3AF62261
:100EA200D083D082F8E4937012740193700DA3A3DF
:100EB20093F8740193F5828883E4737402936860F3
:060EC200EFA3A3A380DFF3
:100FF800EFB40A07740D121003740A309811A899F7
:10100800B8130CC2983098FDA899C298B811F63058
:0710180099FDC299F5992230
:00000001FF
